{
  "address": "0x879749B39F5bC7147672Be30D8AA9AbC9f1aFf11",
  "abi": [
    {
      "inputs": [
        {
          "internalType": "address",
          "name": "_Comptroller",
          "type": "address"
        },
        {
          "internalType": "address",
          "name": "_vBNB",
          "type": "address"
        }
      ],
      "stateMutability": "nonpayable",
      "type": "constructor"
    },
    {
      "anonymous": false,
      "inputs": [
        {
          "indexed": false,
          "internalType": "uint8",
          "name": "version",
          "type": "uint8"
        }
      ],
      "name": "Initialized",
      "type": "event"
    },
    {
      "anonymous": false,
      "inputs": [
        {
          "indexed": true,
          "internalType": "address",
          "name": "previousOwner",
          "type": "address"
        },
        {
          "indexed": true,
          "internalType": "address",
          "name": "newOwner",
          "type": "address"
        }
      ],
      "name": "OwnershipTransferred",
      "type": "event"
    },
    {
      "anonymous": false,
      "inputs": [
        {
          "indexed": true,
          "internalType": "address",
          "name": "account",
          "type": "address"
        },
        {
          "indexed": true,
          "internalType": "address",
          "name": "vToken",
          "type": "address"
        },
        {
          "indexed": true,
          "internalType": "address",
          "name": "underlying",
          "type": "address"
        },
        {
          "indexed": false,
          "internalType": "uint256",
          "name": "amount",
          "type": "uint256"
        }
      ],
      "name": "Repay",
      "type": "event"
    },
    {
      "anonymous": false,
      "inputs": [
        {
          "indexed": true,
          "internalType": "address",
          "name": "account",
          "type": "address"
        },
        {
          "indexed": true,
          "internalType": "address",
          "name": "vToken",
          "type": "address"
        },
        {
          "indexed": false,
          "internalType": "uint256",
          "name": "amount",
          "type": "uint256"
        },
        {
          "indexed": false,
          "internalType": "uint256",
          "name": "errCode",
          "type": "uint256"
        }
      ],
      "name": "RepayFail",
      "type": "event"
    },
    {
      "anonymous": false,
      "inputs": [
        {
          "indexed": true,
          "internalType": "address",
          "name": "account",
          "type": "address"
        },
        {
          "indexed": true,
          "internalType": "address",
          "name": "vToken",
          "type": "address"
        },
        {
          "indexed": true,
          "internalType": "address",
          "name": "underlying",
          "type": "address"
        },
        {
          "indexed": false,
          "internalType": "uint256",
          "name": "amount",
          "type": "uint256"
        },
        {
          "indexed": false,
          "internalType": "uint256",
          "name": "mintedTokens",
          "type": "uint256"
        }
      ],
      "name": "Supply",
      "type": "event"
    },
    {
      "anonymous": false,
      "inputs": [
        {
          "indexed": true,
          "internalType": "address",
          "name": "account",
          "type": "address"
        },
        {
          "indexed": true,
          "internalType": "address",
          "name": "vToken",
          "type": "address"
        },
        {
          "indexed": false,
          "internalType": "uint256",
          "name": "amount",
          "type": "uint256"
        },
        {
          "indexed": false,
          "internalType": "uint256",
          "name": "errCode",
          "type": "uint256"
        }
      ],
      "name": "SupplyFail",
      "type": "event"
    },
    {
      "anonymous": false,
      "inputs": [
        {
          "indexed": true,
          "internalType": "address",
          "name": "account",
          "type": "address"
        },
        {
          "indexed": true,
          "internalType": "address",
          "name": "vToken",
          "type": "address"
        },
        {
          "indexed": false,
          "internalType": "uint256",
          "name": "redeemTokens",
          "type": "uint256"
        },
        {
          "indexed": true,
          "internalType": "address",
          "name": "underlying",
          "type": "address"
        },
        {
          "indexed": false,
          "internalType": "uint256",
          "name": "redeemedAmount",
          "type": "uint256"
        }
      ],
      "name": "Withdraw",
      "type": "event"
    },
    {
      "anonymous": false,
      "inputs": [
        {
          "indexed": true,
          "internalType": "address",
          "name": "account",
          "type": "address"
        },
        {
          "indexed": true,
          "internalType": "address",
          "name": "vToken",
          "type": "address"
        },
        {
          "indexed": false,
          "internalType": "uint256",
          "name": "redeemTokens",
          "type": "uint256"
        },
        {
          "indexed": false,
          "internalType": "uint256",
          "name": "errCode",
          "type": "uint256"
        }
      ],
      "name": "WithdrawFail",
      "type": "event"
    },
    {
      "inputs": [],
      "name": "COMPTROLLER",
      "outputs": [
        {
          "internalType": "contract ComptrollerInterface",
          "name": "",
          "type": "address"
        }
      ],
      "stateMutability": "view",
      "type": "function"
    },
    {
      "inputs": [],
      "name": "approvePool",
      "outputs": [],
      "stateMutability": "nonpayable",
      "type": "function"
    },
    {
      "inputs": [],
      "name": "getAllReservesTokens",
      "outputs": [
        {
          "components": [
            {
              "internalType": "address",
              "name": "tokenAddress",
              "type": "address"
            },
            {
              "internalType": "string",
              "name": "symbol",
              "type": "string"
            },
            {
              "internalType": "uint8",
              "name": "decimals",
              "type": "uint8"
            },
            {
              "internalType": "address",
              "name": "vTokenAddress",
              "type": "address"
            },
            {
              "internalType": "string",
              "name": "vTokenSymbol",
              "type": "string"
            },
            {
              "internalType": "uint8",
              "name": "vTokenDecimals",
              "type": "uint8"
            },
            {
              "internalType": "uint256",
              "name": "ltv",
              "type": "uint256"
            },
            {
              "internalType": "bool",
              "name": "rewardEnabled",
              "type": "bool"
            }
          ],
          "internalType": "struct VenusAdapter.TokenData[]",
          "name": "tokens",
          "type": "tuple[]"
        }
      ],
      "stateMutability": "view",
      "type": "function"
    },
    {
      "inputs": [
        {
          "internalType": "address",
          "name": "user",
          "type": "address"
        }
      ],
      "name": "getUserAccountData",
      "outputs": [
        {
          "internalType": "uint256",
          "name": "totalCollateral",
          "type": "uint256"
        },
        {
          "internalType": "uint256",
          "name": "totalDebt",
          "type": "uint256"
        },
        {
          "internalType": "uint256",
          "name": "availableBorrows",
          "type": "uint256"
        },
        {
          "internalType": "uint256",
          "name": "currentLiquidationThreshold",
          "type": "uint256"
        },
        {
          "internalType": "uint256",
          "name": "ltv",
          "type": "uint256"
        },
        {
          "internalType": "uint256",
          "name": "healthFactor",
          "type": "uint256"
        }
      ],
      "stateMutability": "view",
      "type": "function"
    },
    {
      "inputs": [
        {
          "internalType": "address",
          "name": "_biconomy",
          "type": "address"
        }
      ],
      "name": "initialize",
      "outputs": [],
      "stateMutability": "nonpayable",
      "type": "function"
    },
    {
      "inputs": [
        {
          "internalType": "address",
          "name": "forwarder",
          "type": "address"
        }
      ],
      "name": "isTrustedForwarder",
      "outputs": [
        {
          "internalType": "bool",
          "name": "",
          "type": "bool"
        }
      ],
      "stateMutability": "view",
      "type": "function"
    },
    {
      "inputs": [],
      "name": "owner",
      "outputs": [
        {
          "internalType": "address",
          "name": "",
          "type": "address"
        }
      ],
      "stateMutability": "view",
      "type": "function"
    },
    {
      "inputs": [],
      "name": "renounceOwnership",
      "outputs": [],
      "stateMutability": "nonpayable",
      "type": "function"
    },
    {
      "inputs": [
        {
          "internalType": "contract VBep20Interface",
          "name": "vBep20",
          "type": "address"
        },
        {
          "internalType": "uint256",
          "name": "amount",
          "type": "uint256"
        }
      ],
      "name": "repay",
      "outputs": [],
      "stateMutability": "nonpayable",
      "type": "function"
    },
    {
      "inputs": [
        {
          "internalType": "contract VBep20Interface",
          "name": "repayVBep20",
          "type": "address"
        },
        {
          "internalType": "uint256",
          "name": "repayAmount",
          "type": "uint256"
        },
        {
          "internalType": "contract VTokenInterface",
          "name": "withdrawalVToken",
          "type": "address"
        },
        {
          "internalType": "uint256",
          "name": "redeemTokens",
          "type": "uint256"
        }
      ],
      "name": "repayAndWithdraw",
      "outputs": [],
      "stateMutability": "nonpayable",
      "type": "function"
    },
    {
      "inputs": [
        {
          "internalType": "uint256",
          "name": "amount",
          "type": "uint256"
        }
      ],
      "name": "repayETH",
      "outputs": [],
      "stateMutability": "payable",
      "type": "function"
    },
    {
      "inputs": [
        {
          "internalType": "uint256",
          "name": "repayAmount",
          "type": "uint256"
        },
        {
          "internalType": "contract VTokenInterface",
          "name": "withdrawalVToken",
          "type": "address"
        },
        {
          "internalType": "uint256",
          "name": "redeemTokens",
          "type": "uint256"
        }
      ],
      "name": "repayETHAndWithdraw",
      "outputs": [],
      "stateMutability": "payable",
      "type": "function"
    },
    {
      "inputs": [
        {
          "internalType": "address",
          "name": "_biconomy",
          "type": "address"
        }
      ],
      "name": "setBiconomy",
      "outputs": [],
      "stateMutability": "nonpayable",
      "type": "function"
    },
    {
      "inputs": [
        {
          "internalType": "contract VBep20Interface",
          "name": "vBep20",
          "type": "address"
        },
        {
          "internalType": "uint256",
          "name": "amount",
          "type": "uint256"
        }
      ],
      "name": "supply",
      "outputs": [],
      "stateMutability": "nonpayable",
      "type": "function"
    },
    {
      "inputs": [],
      "name": "supplyETH",
      "outputs": [],
      "stateMutability": "payable",
      "type": "function"
    },
    {
      "inputs": [
        {
          "internalType": "address",
          "name": "newOwner",
          "type": "address"
        }
      ],
      "name": "transferOwnership",
      "outputs": [],
      "stateMutability": "nonpayable",
      "type": "function"
    },
    {
      "inputs": [],
      "name": "trustedForwarder",
      "outputs": [
        {
          "internalType": "address",
          "name": "",
          "type": "address"
        }
      ],
      "stateMutability": "view",
      "type": "function"
    },
    {
      "inputs": [],
      "name": "vBNB",
      "outputs": [
        {
          "internalType": "contract VBNBInterface",
          "name": "",
          "type": "address"
        }
      ],
      "stateMutability": "view",
      "type": "function"
    },
    {
      "inputs": [],
      "name": "versionRecipient",
      "outputs": [
        {
          "internalType": "string",
          "name": "",
          "type": "string"
        }
      ],
      "stateMutability": "pure",
      "type": "function"
    },
    {
      "inputs": [
        {
          "internalType": "address",
          "name": "vToken",
          "type": "address"
        },
        {
          "internalType": "uint256",
          "name": "redeemTokens",
          "type": "uint256"
        }
      ],
      "name": "withdraw",
      "outputs": [],
      "stateMutability": "nonpayable",
      "type": "function"
    },
    {
      "stateMutability": "payable",
      "type": "receive"
    }
  ],
  "transactionHash": "0x3c2a9b163bff24b631f93e2b39c2f03ec636903698281299dae73fa833c9e4b4",
  "args": [
    "0x94d1820b2D1c7c7452A163983Dc888CEC546b77D",
    "0x2E7222e51c0f6e98610A1543Aa3836E092CDe62c"
  ],
  "numDeployments": 2,
  "solcInputHash": "e95c2727a6f32055081691ae49019921",
  "bytecode": "0x60c06040523480156200001157600080fd5b50604051620033ad380380620033ad833981016040819052620000349162000135565b6200003e62000056565b6001600160a01b039182166080521660a0526200016d565b600054610100900460ff1615620000c35760405162461bcd60e51b815260206004820152602760248201527f496e697469616c697a61626c653a20636f6e747261637420697320696e697469604482015266616c697a696e6760c81b606482015260840160405180910390fd5b60005460ff908116101562000116576000805460ff191660ff9081179091556040519081527f7f26b83ff96e1f2b6a682f133852f6798a09c465da95921460cefb38474024989060200160405180910390a15b565b80516001600160a01b03811681146200013057600080fd5b919050565b600080604083850312156200014957600080fd5b620001548362000118565b9150620001646020840162000118565b90509250929050565b60805160a0516131bf620001ee600039600081816101960152818161046a0152818161056d015281816105fe0152818161099001528181610a1e01528181610d25015281816114bc0152611d2501526000818161027e01528181610a71015281816110190152818161111e01528181611bc00152611c6d01526131bf6000f3fe6080604052600436106101235760003560e01c80637ad03c8f116100a0578063c4d66de811610064578063c4d66de814610377578063f2b9fdb814610397578063f2fde38b146103b7578063f32f9427146103d7578063f3fef3a3146103ea57600080fd5b80637ad03c8f146102b55780637da0a877146102ca5780638da5cb5b146102ea578063b316ff8914610308578063bf92857c1461032a57600080fd5b8063486ff0cd116100e7578063486ff0cd146101f55780634907b8fc14610225578063572b6c051461022d5780635f82c67e1461026c578063715018a6146102a057600080fd5b80630d8b76a81461012f5780632247463e1461015157806322867d781461016457806333e1567f1461018457806346a629c2146101d557600080fd5b3661012a57005b600080fd5b34801561013b57600080fd5b5061014f61014a366004612ad8565b61040a565b005b61014f61015f366004612af5565b610434565b34801561017057600080fd5b5061014f61017f366004612b0e565b610664565b34801561019057600080fd5b506101b87f000000000000000000000000000000000000000000000000000000000000000081565b6040516001600160a01b0390911681526020015b60405180910390f35b3480156101e157600080fd5b5061014f6101f0366004612b3a565b610968565b34801561020157600080fd5b5060408051808201825260018152603160f81b602082015290516101cc9190612bda565b61014f610982565b34801561023957600080fd5b5061025c610248366004612ad8565b6065546001600160a01b0391821691161490565b60405190151581526020016101cc565b34801561027857600080fd5b506101b87f000000000000000000000000000000000000000000000000000000000000000081565b3480156102ac57600080fd5b5061014f610a47565b3480156102c157600080fd5b5061014f610a5b565b3480156102d657600080fd5b506065546101b8906001600160a01b031681565b3480156102f657600080fd5b506033546001600160a01b03166101b8565b34801561031457600080fd5b5061031d610a6b565b6040516101cc9190612bed565b34801561033657600080fd5b5061034a610345366004612ad8565b611110565b604080519687526020870195909552938501929092526060840152608083015260a082015260c0016101cc565b34801561038357600080fd5b5061014f610392366004612ad8565b6111b4565b3480156103a357600080fd5b5061014f6103b2366004612b0e565b6112e9565b3480156103c357600080fd5b5061014f6103d2366004612ad8565b61142c565b61014f6103e5366004612cdd565b6114a2565b3480156103f657600080fd5b5061014f610405366004612b0e565b6114ba565b61041261183c565b606580546001600160a01b0319166001600160a01b0392909216919091179055565b600061043e6118b5565b9050816000198114156104e9576040516305eff7ef60e21b81526001600160a01b0383811660048301527f000000000000000000000000000000000000000000000000000000000000000016906317bfdfbc90602401602060405180830381600087803b1580156104ae57600080fd5b505af11580156104c2573d6000803e3d6000fd5b505050506040513d601f19601f820116820180604052508101906104e69190612d15565b90505b8034101561054e5760405162461bcd60e51b815260206004820152602760248201527f6d73672e76616c7565206973206c657373207468616e2072657061796d656e7460448201526608185b5bdd5b9d60ca1b60648201526084015b60405180910390fd5b60405163e597461960e01b81526001600160a01b0383811660048301527f0000000000000000000000000000000000000000000000000000000000000000169063e59746199083906024016000604051808303818588803b1580156105b257600080fd5b505af11580156105c6573d6000803e3d6000fd5b5047935050821591506105df9050576105df83826118c4565b73eeeeeeeeeeeeeeeeeeeeeeeeeeeeeeeeeeeeeeee6001600160a01b037f000000000000000000000000000000000000000000000000000000000000000081169085167f4cdde6e09bb755c9a5589ebaec640bbfedff1362d4b255ebf8339782b9942faa61064d8534612d44565b60405190815260200160405180910390a450505050565b600061066e6118b5565b9050816000198114156106f9576040516305eff7ef60e21b81526001600160a01b0383811660048301528516906317bfdfbc90602401602060405180830381600087803b1580156106be57600080fd5b505af11580156106d2573d6000803e3d6000fd5b505050506040513d601f19601f820116820180604052508101906106f69190612d15565b90505b6000846001600160a01b0316636f307dc36040518163ffffffff1660e01b815260040160206040518083038186803b15801561073457600080fd5b505afa158015610748573d6000803e3d6000fd5b505050506040513d601f19601f8201168201806040525081019061076c9190612d5b565b90506107836001600160a01b038216843085611977565b6040516304c11f0360e31b81526001600160a01b0384811660048301526024820184905260009190871690632608f81890604401602060405180830381600087803b1580156107d157600080fd5b505af11580156107e5573d6000803e3d6000fd5b505050506040513d601f19601f820116820180604052508101906108099190612d15565b6040516370a0823160e01b81523060048201529091506000906001600160a01b038416906370a082319060240160206040518083038186803b15801561084e57600080fd5b505afa158015610862573d6000803e3d6000fd5b505050506040513d601f19601f820116820180604052508101906108869190612d15565b905080156108a2576108a26001600160a01b03841686836119e2565b8161090857826001600160a01b0316876001600160a01b0316866001600160a01b03167f4cdde6e09bb755c9a5589ebaec640bbfedff1362d4b255ebf8339782b9942faa84886108f29190612d44565b60405190815260200160405180910390a461095f565b866001600160a01b0316856001600160a01b03167f06c3b5b720e855f38a08383f0f0eef3cef3e153383ba6e3eff3814a4ddf1af178685604051610956929190918252602082015260400190565b60405180910390a35b50505050505050565b6109728484610664565b61097c82826114ba565b50505050565b600061098c6118b5565b90507f00000000000000000000000000000000000000000000000000000000000000006001600160a01b0316631249c58b346040518263ffffffff1660e01b81526004016000604051808303818588803b1580156109e957600080fd5b505af11580156109fd573d6000803e3d6000fd5b5050505050610a448173eeeeeeeeeeeeeeeeeeeeeeeeeeeeeeeeeeeeeeee347f00000000000000000000000000000000000000000000000000000000000000006000611a12565b50565b610a4f61183c565b610a596000611b6a565b565b610a6361183c565b610a59611bbc565b606060007f00000000000000000000000000000000000000000000000000000000000000006001600160a01b031663b0772d0b6040518163ffffffff1660e01b815260040160006040518083038186803b158015610ac857600080fd5b505afa158015610adc573d6000803e3d6000fd5b505050506040513d6000823e601f3d908101601f19168201604052610b049190810190612de3565b9050805167ffffffffffffffff811115610b2057610b20612d78565b604051908082528060200260200182016040528015610b8e57816020015b6040805161010081018252600080825260606020808401829052938301829052808301829052608083015260a0820181905260c0820181905260e08201528252600019909201910181610b3e5790505b50915060005b815181101561110b576000828281518110610bb157610bb1612e77565b6020026020010151905080848381518110610bce57610bce612e77565b6020026020010151606001906001600160a01b031690816001600160a01b031681525050806001600160a01b03166395d89b416040518163ffffffff1660e01b815260040160006040518083038186803b158015610c2b57600080fd5b505afa158015610c3f573d6000803e3d6000fd5b505050506040513d6000823e601f3d908101601f19168201604052610c679190810190612e8d565b848381518110610c7957610c79612e77565b602002602001015160800181905250806001600160a01b031663313ce5676040518163ffffffff1660e01b815260040160206040518083038186803b158015610cc157600080fd5b505afa158015610cd5573d6000803e3d6000fd5b505050506040513d601f19601f82011682018060405250810190610cf99190612f18565b848381518110610d0b57610d0b612e77565b602002602001015160a0019060ff16908160ff16815250507f00000000000000000000000000000000000000000000000000000000000000006001600160a01b0316816001600160a01b03161415610e165773eeeeeeeeeeeeeeeeeeeeeeeeeeeeeeeeeeeeeeee848381518110610d8457610d84612e77565b6020026020010151600001906001600160a01b031690816001600160a01b0316815250506040518060400160405280600381526020016221272160e91b815250848381518110610dd657610dd6612e77565b6020026020010151602001819052506012848381518110610df957610df9612e77565b60200260200101516040019060ff16908160ff1681525050610ff5565b6000816001600160a01b0316636f307dc36040518163ffffffff1660e01b815260040160206040518083038186803b158015610e5157600080fd5b505afa158015610e65573d6000803e3d6000fd5b505050506040513d601f19601f82011682018060405250810190610e899190612d5b565b905080858481518110610e9e57610e9e612e77565b6020026020010151600001906001600160a01b031690816001600160a01b031681525050806001600160a01b03166395d89b416040518163ffffffff1660e01b815260040160006040518083038186803b158015610efb57600080fd5b505afa158015610f0f573d6000803e3d6000fd5b505050506040513d6000823e601f3d908101601f19168201604052610f379190810190612e8d565b858481518110610f4957610f49612e77565b602002602001015160200181905250806001600160a01b031663313ce5676040518163ffffffff1660e01b815260040160206040518083038186803b158015610f9157600080fd5b505afa158015610fa5573d6000803e3d6000fd5b505050506040513d601f19601f82011682018060405250810190610fc99190612f18565b858481518110610fdb57610fdb612e77565b60200260200101516040019060ff16908160ff1681525050505b604051638e8f294b60e01b81526001600160a01b03828116600483015260009182917f00000000000000000000000000000000000000000000000000000000000000001690638e8f294b9060240160606040518083038186803b15801561105b57600080fd5b505afa15801561106f573d6000803e3d6000fd5b505050506040513d601f19601f820116820180604052508101906110939190612f50565b9250925050655af3107a4000826110aa9190612fa2565b8685815181106110bc576110bc612e77565b602002602001015160c0018181525050808685815181106110df576110df612e77565b602002602001015160e0019015159081151581525050505050808061110390612fc4565b915050610b94565b505090565b6000806000806000806111437f000000000000000000000000000000000000000000000000000000000000000088611e88565b9298509096509450915061115c6402540be40087612fa2565b955061116d6402540be40086612fa2565b945061117e6402540be40085612fa2565b9350819250846000146111a557846111968388612fdf565b6111a09190612fa2565b6111a9565b6000195b905091939550919395565b600054610100900460ff16158080156111d45750600054600160ff909116105b806111ee5750303b1580156111ee575060005460ff166001145b6112515760405162461bcd60e51b815260206004820152602e60248201527f496e697469616c697a61626c653a20636f6e747261637420697320616c72656160448201526d191e481a5b9a5d1a585b1a5e995960921b6064820152608401610545565b6000805460ff191660011790558015611274576000805461ff0019166101001790555b61127c6123d4565b606580546001600160a01b0319166001600160a01b03841617905561129f611bbc565b80156112e5576000805461ff0019169055604051600181527f7f26b83ff96e1f2b6a682f133852f6798a09c465da95921460cefb38474024989060200160405180910390a15b5050565b60006112f36118b5565b90506000836001600160a01b0316636f307dc36040518163ffffffff1660e01b815260040160206040518083038186803b15801561133057600080fd5b505afa158015611344573d6000803e3d6000fd5b505050506040513d601f19601f820116820180604052508101906113689190612d5b565b905061137f6001600160a01b038216833086611977565b60405163140e25ad60e31b8152600481018490526000906001600160a01b0386169063a0712d6890602401602060405180830381600087803b1580156113c457600080fd5b505af11580156113d8573d6000803e3d6000fd5b505050506040513d601f19601f820116820180604052508101906113fc9190612d15565b90508015611418576114186001600160a01b03831684866119e2565b6114258383868885611a12565b5050505050565b61143461183c565b6001600160a01b0381166114995760405162461bcd60e51b815260206004820152602660248201527f4f776e61626c653a206e6577206f776e657220697320746865207a65726f206160448201526564647265737360d01b6064820152608401610545565b610a4481611b6a565b6114ab83610434565b6114b582826114ba565b505050565b7f00000000000000000000000000000000000000000000000000000000000000006001600160a01b0316826001600160a01b031614156115315760405162461bcd60e51b81526020600482015260126024820152711b9bdd081d909390881cdd5c1c1bdc9d195960721b6044820152606401610545565b600061153b6118b5565b9050816000198114156115c4576040516370a0823160e01b81526001600160a01b0383811660048301528516906370a082319060240160206040518083038186803b15801561158957600080fd5b505afa15801561159d573d6000803e3d6000fd5b505050506040513d601f19601f820116820180604052508101906115c19190612d15565b90505b6115d96001600160a01b038516833084611977565b60405163db006a7560e01b8152600481018290526000906001600160a01b0386169063db006a7590602401602060405180830381600087803b15801561161e57600080fd5b505af1158015611632573d6000803e3d6000fd5b505050506040513d601f19601f820116820180604052508101906116569190612d15565b905080156116cd576116726001600160a01b03861684846119e2565b846001600160a01b0316836001600160a01b03167f630fe739932d7769f42fb1857e24a7f480aa55d4322e54bc0b13aed4be4b331084846040516116c0929190918252602082015260400190565b60405180910390a3611425565b6000856001600160a01b0316636f307dc36040518163ffffffff1660e01b815260040160206040518083038186803b15801561170857600080fd5b505afa15801561171c573d6000803e3d6000fd5b505050506040513d601f19601f820116820180604052508101906117409190612d5b565b6040516370a0823160e01b81523060048201529091506000906001600160a01b038316906370a082319060240160206040518083038186803b15801561178557600080fd5b505afa158015611799573d6000803e3d6000fd5b505050506040513d601f19601f820116820180604052508101906117bd9190612d15565b90506117d36001600160a01b03831686836119e2565b816001600160a01b0316876001600160a01b0316866001600160a01b03167f919fc3589577d8ba8023ca13d0b64eaeb6af31c331b4b81c0d42d66423603077878560405161182b929190918252602082015260400190565b60405180910390a450505050505050565b6118446118b5565b6001600160a01b031661185f6033546001600160a01b031690565b6001600160a01b031614610a595760405162461bcd60e51b815260206004820181905260248201527f4f776e61626c653a2063616c6c6572206973206e6f7420746865206f776e65726044820152606401610545565b60006118bf612403565b905090565b604080516000808252602082019092526001600160a01b0384169083906040516118ee9190612ffe565b60006040518083038185875af1925050503d806000811461192b576040519150601f19603f3d011682016040523d82523d6000602084013e611930565b606091505b50509050806114b55760405162461bcd60e51b815260206004820152601360248201527211551217d514905394d1915497d19052531151606a1b6044820152606401610545565b6040516001600160a01b038085166024830152831660448201526064810182905261097c9085906323b872dd60e01b906084015b60408051601f198184030181529190526020810180516001600160e01b03166001600160e01b031990931692909217909152612437565b6040516001600160a01b0383166024820152604481018290526114b590849063a9059cbb60e01b906064016119ab565b80611b0d576040516370a0823160e01b81523060048201526000906001600160a01b038416906370a082319060240160206040518083038186803b158015611a5957600080fd5b505afa158015611a6d573d6000803e3d6000fd5b505050506040513d601f19601f82011682018060405250810190611a919190612d15565b9050611aa76001600160a01b03841687836119e2565b846001600160a01b0316836001600160a01b0316876001600160a01b03167fe751baae971614714a5055ecbc0892f68c0e2d70c56550cb65a76bc840fa5f6e8785604051611aff929190918252602082015260400190565b60405180910390a450611425565b816001600160a01b0316856001600160a01b03167f05200240135f0c4e55796709a047759f3ff2019b3c924f8a211039236e9e24ae8584604051611b5b929190918252602082015260400190565b60405180910390a35050505050565b603380546001600160a01b038381166001600160a01b0319831681179093556040519116919082907f8be0079c531659141344cd1fd0a4f28419497f9722a3daafe3b4186f6b6457e090600090a35050565b60007f00000000000000000000000000000000000000000000000000000000000000006001600160a01b031663b0772d0b6040518163ffffffff1660e01b815260040160006040518083038186803b158015611c1757600080fd5b505afa158015611c2b573d6000803e3d6000fd5b505050506040513d6000823e601f3d908101601f19168201604052611c539190810190612de3565b604051631853304760e31b81529091506001600160a01b037f0000000000000000000000000000000000000000000000000000000000000000169063c299823890611ca290849060040161301a565b600060405180830381600087803b158015611cbc57600080fd5b505af1158015611cd0573d6000803e3d6000fd5b505050506040513d6000823e601f3d908101601f19168201604052611cf89190810190613067565b5060005b81518110156112e5576000828281518110611d1957611d19612e77565b602002602001015190507f00000000000000000000000000000000000000000000000000000000000000006001600160a01b0316816001600160a01b03161415611d635750611e76565b6000816001600160a01b0316636f307dc36040518163ffffffff1660e01b815260040160206040518083038186803b158015611d9e57600080fd5b505afa158015611db2573d6000803e3d6000fd5b505050506040513d601f19601f82011682018060405250810190611dd69190612d5b565b604051636eb1769f60e11b81523060048201526001600160a01b0384811660248301529192509082169063dd62ed3e9060440160206040518083038186803b158015611e2157600080fd5b505afa158015611e35573d6000803e3d6000fd5b505050506040513d601f19601f82011682018060405250810190611e599190612d15565b611e7357611e736001600160a01b03821683600019612509565b50505b80611e8081612fc4565b915050611cfc565b600080600080611e966129ff565b604051632aff3bff60e21b81526001600160a01b03878116600483015260009182918a169063abfceffc9060240160006040518083038186803b158015611edc57600080fd5b505afa158015611ef0573d6000803e3d6000fd5b505050506040513d6000823e601f3d908101601f19168201604052611f189190810190612de3565b805190915060005b81811015612255576000838281518110611f3c57611f3c612e77565b60209081029190910101516040516361bfb47160e11b81526001600160a01b038d811660048301529192509082169063c37f68e29060240160806040518083038186803b158015611f8c57600080fd5b505afa158015611fa0573d6000803e3d6000fd5b505050506040513d601f19601f82011682018060405250810190611fc491906130ed565b60a08a01526080890152606088015294508415611fe15750612245565b604051638e8f294b60e01b81526001600160a01b038281166004830152600091908e1690638e8f294b9060240160606040518083038186803b15801561202657600080fd5b505afa15801561203a573d6000803e3d6000fd5b505050506040513d601f19601f8201168201806040525081019061205e9190612f50565b509150506040518060200160405280828152508760e0018190525060405180602001604052808860a001518152508761010001819052508c6001600160a01b0316637dc0d1d06040518163ffffffff1660e01b815260040160206040518083038186803b1580156120ce57600080fd5b505afa1580156120e2573d6000803e3d6000fd5b505050506040513d601f19601f820116820180604052508101906121069190612d5b565b60405163fc57d4df60e01b81526001600160a01b038481166004830152919091169063fc57d4df9060240160206040518083038186803b15801561214957600080fd5b505afa15801561215d573d6000803e3d6000fd5b505050506040513d601f19601f820116820180604052508101906121819190612d15565b60c08801819052612193575050612245565b604080516020810190915260c0880151815261012088015260e08701516101008801516121ce916121c39161262d565b88610120015161262d565b6101408801819052606088015160208901516121eb929190612675565b6020880152610100870151610120880151612206919061262d565b610160880181905260608801518851612220929190612675565b87526101208701516080880151604089015161223d929190612675565b604088015250505b61224e81612fc4565b9050611f20565b5060008a6001600160a01b0316639254f5e56040518163ffffffff1660e01b815260040160206040518083038186803b15801561229157600080fd5b505afa1580156122a5573d6000803e3d6000fd5b505050506040513d601f19601f820116820180604052508101906122c99190612d5b565b90506001600160a01b03811615612369576040808601519051633c617c9160e11b81526001600160a01b038c811660048301526123639291908416906378c2f9229060240160206040518083038186803b15801561232657600080fd5b505afa15801561233a573d6000803e3d6000fd5b505050506040513d601f19601f8201168201806040525081019061235e9190612d15565b6126a1565b60408601525b8451604086015160208701518110612382576000612396565b866040015187602001516123969190612d44565b87516123a35760006123bf565b6123bf88602001516127106123b89190612fdf565b89516126d7565b929e919d509b50909950975050505050505050565b600054610100900460ff166123fb5760405162461bcd60e51b815260040161054590613123565b610a59612735565b60006018361080159061242057506065546001600160a01b031633145b15612432575060131936013560601c90565b503390565b600061248c826040518060400160405280602081526020017f5361666545524332303a206c6f772d6c6576656c2063616c6c206661696c6564815250856001600160a01b031661276c9092919063ffffffff16565b8051909150156114b557808060200190518101906124aa919061316e565b6114b55760405162461bcd60e51b815260206004820152602a60248201527f5361666545524332303a204552433230206f7065726174696f6e20646964206e6044820152691bdd081cdd58d8d9595960b21b6064820152608401610545565b8015806125925750604051636eb1769f60e11b81523060048201526001600160a01b03838116602483015284169063dd62ed3e9060440160206040518083038186803b15801561255857600080fd5b505afa15801561256c573d6000803e3d6000fd5b505050506040513d601f19601f820116820180604052508101906125909190612d15565b155b6125fd5760405162461bcd60e51b815260206004820152603660248201527f5361666545524332303a20617070726f76652066726f6d206e6f6e2d7a65726f60448201527520746f206e6f6e2d7a65726f20616c6c6f77616e636560501b6064820152608401610545565b6040516001600160a01b0383166024820152604481018290526114b590849063095ea7b360e01b906064016119ab565b6040805160208101909152600081526040518060200160405280670de0b6b3a764000061266286600001518660000151612783565b61266c9190612fa2565b90529392505050565b60008061268285856127c5565b9050612696612690826127ed565b846126a1565b9150505b9392505050565b600061269a8383604051806040016040528060118152602001706164646974696f6e206f766572666c6f7760781b81525061280b565b60008082116127195760405162461bcd60e51b815260206004820152600e60248201526d646976696465206279207a65726f60901b6044820152606401610545565b816002810484018161272d5761272d612f8c565b049392505050565b600054610100900460ff1661275c5760405162461bcd60e51b815260040161054590613123565b610a596127676118b5565b611b6a565b606061277b848460008561283b565b949350505050565b600061269a83836040518060400160405280601781526020017f6d756c7469706c69636174696f6e206f766572666c6f77000000000000000000815250612916565b604080516020810190915260008152604051806020016040528061266c856000015185612783565b805160009061280590670de0b6b3a764000090612fa2565b92915050565b600083830182858210156128325760405162461bcd60e51b81526004016105459190612bda565b50949350505050565b60608247101561289c5760405162461bcd60e51b815260206004820152602660248201527f416464726573733a20696e73756666696369656e742062616c616e636520666f6044820152651c8818d85b1b60d21b6064820152608401610545565b600080866001600160a01b031685876040516128b89190612ffe565b60006040518083038185875af1925050503d80600081146128f5576040519150601f19603f3d011682016040523d82523d6000602084013e6128fa565b606091505b509150915061290b87838387612964565b979650505050505050565b6000831580612923575082155b156129305750600061269a565b8383028385828161294357612943612f8c565b041483906128325760405162461bcd60e51b81526004016105459190612bda565b606083156129d05782516129c9576001600160a01b0385163b6129c95760405162461bcd60e51b815260206004820152601d60248201527f416464726573733a2063616c6c20746f206e6f6e2d636f6e74726163740000006044820152606401610545565b508161277b565b61277b83838151156129e55781518083602001fd5b8060405162461bcd60e51b81526004016105459190612bda565b60405180610180016040528060008152602001600081526020016000815260200160008152602001600081526020016000815260200160008152602001612a526040518060200160405280600081525090565b8152602001612a6d6040518060200160405280600081525090565b8152602001612a886040518060200160405280600081525090565b8152602001612aa36040518060200160405280600081525090565b8152602001612abe6040518060200160405280600081525090565b905290565b6001600160a01b0381168114610a4457600080fd5b600060208284031215612aea57600080fd5b813561269a81612ac3565b600060208284031215612b0757600080fd5b5035919050565b60008060408385031215612b2157600080fd5b8235612b2c81612ac3565b946020939093013593505050565b60008060008060808587031215612b5057600080fd5b8435612b5b81612ac3565b9350602085013592506040850135612b7281612ac3565b9396929550929360600135925050565b60005b83811015612b9d578181015183820152602001612b85565b8381111561097c5750506000910152565b60008151808452612bc6816020860160208601612b82565b601f01601f19169290920160200192915050565b60208152600061269a6020830184612bae565b60006020808301818452808551808352604092508286019150828160051b87010184880160005b83811015612ccf57888303603f19018552815180516001600160a01b031684528781015161010089860181905290612c4e82870182612bae565b91505087820151612c638987018260ff169052565b506060828101516001600160a01b03169086015260808083015186830382880152612c8e8382612bae565b9250505060a080830151612ca68288018260ff169052565b505060c0828101519086015260e091820151151591909401529386019390860190600101612c14565b509098975050505050505050565b600080600060608486031215612cf257600080fd5b833592506020840135612d0481612ac3565b929592945050506040919091013590565b600060208284031215612d2757600080fd5b5051919050565b634e487b7160e01b600052601160045260246000fd5b600082821015612d5657612d56612d2e565b500390565b600060208284031215612d6d57600080fd5b815161269a81612ac3565b634e487b7160e01b600052604160045260246000fd5b604051601f8201601f1916810167ffffffffffffffff81118282101715612db757612db7612d78565b604052919050565b600067ffffffffffffffff821115612dd957612dd9612d78565b5060051b60200190565b60006020808385031215612df657600080fd5b825167ffffffffffffffff811115612e0d57600080fd5b8301601f81018513612e1e57600080fd5b8051612e31612e2c82612dbf565b612d8e565b81815260059190911b82018301908381019087831115612e5057600080fd5b928401925b8284101561290b578351612e6881612ac3565b82529284019290840190612e55565b634e487b7160e01b600052603260045260246000fd5b600060208284031215612e9f57600080fd5b815167ffffffffffffffff80821115612eb757600080fd5b818401915084601f830112612ecb57600080fd5b815181811115612edd57612edd612d78565b612ef0601f8201601f1916602001612d8e565b9150808252856020828501011115612f0757600080fd5b612832816020840160208601612b82565b600060208284031215612f2a57600080fd5b815160ff8116811461269a57600080fd5b80518015158114612f4b57600080fd5b919050565b600080600060608486031215612f6557600080fd5b612f6e84612f3b565b925060208401519150612f8360408501612f3b565b90509250925092565b634e487b7160e01b600052601260045260246000fd5b600082612fbf57634e487b7160e01b600052601260045260246000fd5b500490565b6000600019821415612fd857612fd8612d2e565b5060010190565b6000816000190483118215151615612ff957612ff9612d2e565b500290565b60008251613010818460208701612b82565b9190910192915050565b6020808252825182820181905260009190848201906040850190845b8181101561305b5783516001600160a01b031683529284019291840191600101613036565b50909695505050505050565b6000602080838503121561307a57600080fd5b825167ffffffffffffffff81111561309157600080fd5b8301601f810185136130a257600080fd5b80516130b0612e2c82612dbf565b81815260059190911b820183019083810190878311156130cf57600080fd5b928401925b8284101561290b578351825292840192908401906130d4565b6000806000806080858703121561310357600080fd5b505082516020840151604085015160609095015191969095509092509050565b6020808252602b908201527f496e697469616c697a61626c653a20636f6e7472616374206973206e6f74206960408201526a6e697469616c697a696e6760a81b606082015260800190565b60006020828403121561318057600080fd5b61269a82612f3b56fea2646970667358221220d81735574e152d9f92c9cc37319f5b18396c34928f7471f89263d3b3836382f364736f6c63430008090033",
  "devdoc": {
    "kind": "dev",
    "methods": {
      "constructor": {
        "custom:oz-upgrades-unsafe-allow": "constructor"
      },
      "getUserAccountData(address)": {
        "params": {
          "user": "The address of the user"
        },
        "returns": {
          "availableBorrows": "The borrowing power left of the user in USD",
          "currentLiquidationThreshold": "The liquidation threshold of the user. The unit is 10000",
          "healthFactor": "The current health factor of the user. The unit is 10000",
          "ltv": "The loan to value of The user. The unit is 10000",
          "totalCollateral": "The total collateral of the user in USD. The unit is 100000000",
          "totalDebt": "The total debt of the user in USD"
        }
      },
      "owner()": {
        "details": "Returns the address of the current owner."
      },
      "renounceOwnership()": {
        "details": "Leaves the contract without owner. It will not be possible to call `onlyOwner` functions anymore. Can only be called by the current owner. NOTE: Renouncing ownership will leave the contract without an owner, thereby removing any functionality that is only available to the owner."
      },
      "transferOwnership(address)": {
        "details": "Transfers ownership of the contract to a new account (`newOwner`). Can only be called by the current owner."
      }
    },
    "version": 1
  },
  "userdoc": {
    "kind": "user",
    "methods": {
      "approvePool()": {
        "notice": "If new assets are added into the pool, it needs to be called."
      },
      "getUserAccountData(address)": {
        "notice": "Returns the user account data across all the reserves"
      },
      "isTrustedForwarder(address)": {
        "notice": "return if the forwarder is trusted to forward relayed transactions to us. the forwarder is required to verify the sender's signature, and verify the call is not a replay."
      },
      "repay(address,uint256)": {
        "notice": "The user must approve this SC for the underlying asset."
      },
      "supply(address,uint256)": {
        "notice": "The user must approve this SC for the underlying asset."
      }
    },
    "version": 1
  },
  "storageLayout": {
    "storage": [
      {
        "astId": 138,
        "contract": "contracts/VenusAdapter.sol:VenusAdapter",
        "label": "_initialized",
        "offset": 0,
        "slot": "0",
        "type": "t_uint8"
      },
      {
        "astId": 141,
        "contract": "contracts/VenusAdapter.sol:VenusAdapter",
        "label": "_initializing",
        "offset": 1,
        "slot": "0",
        "type": "t_bool"
      },
      {
        "astId": 1020,
        "contract": "contracts/VenusAdapter.sol:VenusAdapter",
        "label": "__gap",
        "offset": 0,
        "slot": "1",
        "type": "t_array(t_uint256)50_storage"
      },
      {
        "astId": 10,
        "contract": "contracts/VenusAdapter.sol:VenusAdapter",
        "label": "_owner",
        "offset": 0,
        "slot": "51",
        "type": "t_address"
      },
      {
        "astId": 130,
        "contract": "contracts/VenusAdapter.sol:VenusAdapter",
        "label": "__gap",
        "offset": 0,
        "slot": "52",
        "type": "t_array(t_uint256)49_storage"
      },
      {
        "astId": 3864,
        "contract": "contracts/VenusAdapter.sol:VenusAdapter",
        "label": "trustedForwarder",
        "offset": 0,
        "slot": "101",
        "type": "t_address"
      }
    ],
    "types": {
      "t_address": {
        "encoding": "inplace",
        "label": "address",
        "numberOfBytes": "20"
      },
      "t_array(t_uint256)49_storage": {
        "base": "t_uint256",
        "encoding": "inplace",
        "label": "uint256[49]",
        "numberOfBytes": "1568"
      },
      "t_array(t_uint256)50_storage": {
        "base": "t_uint256",
        "encoding": "inplace",
        "label": "uint256[50]",
        "numberOfBytes": "1600"
      },
      "t_bool": {
        "encoding": "inplace",
        "label": "bool",
        "numberOfBytes": "1"
      },
      "t_uint256": {
        "encoding": "inplace",
        "label": "uint256",
        "numberOfBytes": "32"
      },
      "t_uint8": {
        "encoding": "inplace",
        "label": "uint8",
        "numberOfBytes": "1"
      }
    }
  }
}