{
  "address": "0x902C515B21fcEa114e9BE5ACE8d0c9F0E1D241ce",
  "abi": [
    {
      "inputs": [
        {
          "internalType": "address",
          "name": "_Comptroller",
          "type": "address"
        },
        {
          "internalType": "address",
          "name": "_vBNB",
          "type": "address"
        }
      ],
      "stateMutability": "nonpayable",
      "type": "constructor"
    },
    {
      "anonymous": false,
      "inputs": [
        {
          "indexed": false,
          "internalType": "uint8",
          "name": "version",
          "type": "uint8"
        }
      ],
      "name": "Initialized",
      "type": "event"
    },
    {
      "anonymous": false,
      "inputs": [
        {
          "indexed": true,
          "internalType": "address",
          "name": "previousOwner",
          "type": "address"
        },
        {
          "indexed": true,
          "internalType": "address",
          "name": "newOwner",
          "type": "address"
        }
      ],
      "name": "OwnershipTransferred",
      "type": "event"
    },
    {
      "anonymous": false,
      "inputs": [
        {
          "indexed": true,
          "internalType": "address",
          "name": "account",
          "type": "address"
        },
        {
          "indexed": true,
          "internalType": "address",
          "name": "vToken",
          "type": "address"
        },
        {
          "indexed": true,
          "internalType": "address",
          "name": "underlying",
          "type": "address"
        },
        {
          "indexed": false,
          "internalType": "uint256",
          "name": "amount",
          "type": "uint256"
        }
      ],
      "name": "Repay",
      "type": "event"
    },
    {
      "anonymous": false,
      "inputs": [
        {
          "indexed": true,
          "internalType": "address",
          "name": "account",
          "type": "address"
        },
        {
          "indexed": true,
          "internalType": "address",
          "name": "vToken",
          "type": "address"
        },
        {
          "indexed": false,
          "internalType": "uint256",
          "name": "amount",
          "type": "uint256"
        },
        {
          "indexed": false,
          "internalType": "uint256",
          "name": "errCode",
          "type": "uint256"
        }
      ],
      "name": "RepayFail",
      "type": "event"
    },
    {
      "anonymous": false,
      "inputs": [
        {
          "indexed": true,
          "internalType": "address",
          "name": "account",
          "type": "address"
        },
        {
          "indexed": true,
          "internalType": "address",
          "name": "vToken",
          "type": "address"
        },
        {
          "indexed": true,
          "internalType": "address",
          "name": "underlying",
          "type": "address"
        },
        {
          "indexed": false,
          "internalType": "uint256",
          "name": "amount",
          "type": "uint256"
        },
        {
          "indexed": false,
          "internalType": "uint256",
          "name": "mintedTokens",
          "type": "uint256"
        }
      ],
      "name": "Supply",
      "type": "event"
    },
    {
      "anonymous": false,
      "inputs": [
        {
          "indexed": true,
          "internalType": "address",
          "name": "account",
          "type": "address"
        },
        {
          "indexed": true,
          "internalType": "address",
          "name": "vToken",
          "type": "address"
        },
        {
          "indexed": false,
          "internalType": "uint256",
          "name": "amount",
          "type": "uint256"
        },
        {
          "indexed": false,
          "internalType": "uint256",
          "name": "errCode",
          "type": "uint256"
        }
      ],
      "name": "SupplyFail",
      "type": "event"
    },
    {
      "anonymous": false,
      "inputs": [
        {
          "indexed": true,
          "internalType": "address",
          "name": "account",
          "type": "address"
        },
        {
          "indexed": true,
          "internalType": "address",
          "name": "vToken",
          "type": "address"
        },
        {
          "indexed": false,
          "internalType": "uint256",
          "name": "redeemTokens",
          "type": "uint256"
        },
        {
          "indexed": true,
          "internalType": "address",
          "name": "underlying",
          "type": "address"
        },
        {
          "indexed": false,
          "internalType": "uint256",
          "name": "redeemedAmount",
          "type": "uint256"
        }
      ],
      "name": "Withdraw",
      "type": "event"
    },
    {
      "anonymous": false,
      "inputs": [
        {
          "indexed": true,
          "internalType": "address",
          "name": "account",
          "type": "address"
        },
        {
          "indexed": true,
          "internalType": "address",
          "name": "vToken",
          "type": "address"
        },
        {
          "indexed": false,
          "internalType": "uint256",
          "name": "redeemTokens",
          "type": "uint256"
        },
        {
          "indexed": false,
          "internalType": "uint256",
          "name": "errCode",
          "type": "uint256"
        }
      ],
      "name": "WithdrawFail",
      "type": "event"
    },
    {
      "inputs": [],
      "name": "COMPTROLLER",
      "outputs": [
        {
          "internalType": "contract ComptrollerInterface",
          "name": "",
          "type": "address"
        }
      ],
      "stateMutability": "view",
      "type": "function"
    },
    {
      "inputs": [],
      "name": "approvePool",
      "outputs": [],
      "stateMutability": "nonpayable",
      "type": "function"
    },
    {
      "inputs": [],
      "name": "getAllReservesTokens",
      "outputs": [
        {
          "components": [
            {
              "internalType": "address",
              "name": "tokenAddress",
              "type": "address"
            },
            {
              "internalType": "string",
              "name": "symbol",
              "type": "string"
            },
            {
              "internalType": "uint8",
              "name": "decimals",
              "type": "uint8"
            },
            {
              "internalType": "address",
              "name": "vTokenAddress",
              "type": "address"
            },
            {
              "internalType": "string",
              "name": "vTokenSymbol",
              "type": "string"
            },
            {
              "internalType": "uint8",
              "name": "vTokenDecimals",
              "type": "uint8"
            },
            {
              "internalType": "uint256",
              "name": "ltv",
              "type": "uint256"
            },
            {
              "internalType": "bool",
              "name": "rewardEnabled",
              "type": "bool"
            }
          ],
          "internalType": "struct VenusAdapter.TokenData[]",
          "name": "tokens",
          "type": "tuple[]"
        }
      ],
      "stateMutability": "view",
      "type": "function"
    },
    {
      "inputs": [
        {
          "internalType": "address",
          "name": "user",
          "type": "address"
        }
      ],
      "name": "getUserAccountData",
      "outputs": [
        {
          "internalType": "uint256",
          "name": "totalCollateral",
          "type": "uint256"
        },
        {
          "internalType": "uint256",
          "name": "totalDebt",
          "type": "uint256"
        },
        {
          "internalType": "uint256",
          "name": "availableBorrows",
          "type": "uint256"
        },
        {
          "internalType": "uint256",
          "name": "currentLiquidationThreshold",
          "type": "uint256"
        },
        {
          "internalType": "uint256",
          "name": "ltv",
          "type": "uint256"
        },
        {
          "internalType": "uint256",
          "name": "healthFactor",
          "type": "uint256"
        }
      ],
      "stateMutability": "view",
      "type": "function"
    },
    {
      "inputs": [
        {
          "internalType": "address",
          "name": "_biconomy",
          "type": "address"
        }
      ],
      "name": "initialize",
      "outputs": [],
      "stateMutability": "nonpayable",
      "type": "function"
    },
    {
      "inputs": [
        {
          "internalType": "address",
          "name": "forwarder",
          "type": "address"
        }
      ],
      "name": "isTrustedForwarder",
      "outputs": [
        {
          "internalType": "bool",
          "name": "",
          "type": "bool"
        }
      ],
      "stateMutability": "view",
      "type": "function"
    },
    {
      "inputs": [],
      "name": "owner",
      "outputs": [
        {
          "internalType": "address",
          "name": "",
          "type": "address"
        }
      ],
      "stateMutability": "view",
      "type": "function"
    },
    {
      "inputs": [],
      "name": "renounceOwnership",
      "outputs": [],
      "stateMutability": "nonpayable",
      "type": "function"
    },
    {
      "inputs": [
        {
          "internalType": "contract VBep20Interface",
          "name": "vBep20",
          "type": "address"
        },
        {
          "internalType": "uint256",
          "name": "amount",
          "type": "uint256"
        }
      ],
      "name": "repay",
      "outputs": [],
      "stateMutability": "nonpayable",
      "type": "function"
    },
    {
      "inputs": [
        {
          "internalType": "contract VBep20Interface",
          "name": "repayVBep20",
          "type": "address"
        },
        {
          "internalType": "uint256",
          "name": "repayAmount",
          "type": "uint256"
        },
        {
          "internalType": "contract VTokenInterface",
          "name": "withdrawalVToken",
          "type": "address"
        },
        {
          "internalType": "uint256",
          "name": "redeemTokens",
          "type": "uint256"
        }
      ],
      "name": "repayAndWithdraw",
      "outputs": [],
      "stateMutability": "nonpayable",
      "type": "function"
    },
    {
      "inputs": [
        {
          "internalType": "uint256",
          "name": "amount",
          "type": "uint256"
        }
      ],
      "name": "repayETH",
      "outputs": [],
      "stateMutability": "payable",
      "type": "function"
    },
    {
      "inputs": [
        {
          "internalType": "uint256",
          "name": "repayAmount",
          "type": "uint256"
        },
        {
          "internalType": "contract VTokenInterface",
          "name": "withdrawalVToken",
          "type": "address"
        },
        {
          "internalType": "uint256",
          "name": "redeemTokens",
          "type": "uint256"
        }
      ],
      "name": "repayETHAndWithdraw",
      "outputs": [],
      "stateMutability": "payable",
      "type": "function"
    },
    {
      "inputs": [
        {
          "internalType": "address",
          "name": "_biconomy",
          "type": "address"
        }
      ],
      "name": "setBiconomy",
      "outputs": [],
      "stateMutability": "nonpayable",
      "type": "function"
    },
    {
      "inputs": [
        {
          "internalType": "contract VBep20Interface",
          "name": "vBep20",
          "type": "address"
        },
        {
          "internalType": "uint256",
          "name": "amount",
          "type": "uint256"
        }
      ],
      "name": "supply",
      "outputs": [],
      "stateMutability": "nonpayable",
      "type": "function"
    },
    {
      "inputs": [],
      "name": "supplyETH",
      "outputs": [],
      "stateMutability": "payable",
      "type": "function"
    },
    {
      "inputs": [
        {
          "internalType": "address",
          "name": "newOwner",
          "type": "address"
        }
      ],
      "name": "transferOwnership",
      "outputs": [],
      "stateMutability": "nonpayable",
      "type": "function"
    },
    {
      "inputs": [],
      "name": "trustedForwarder",
      "outputs": [
        {
          "internalType": "address",
          "name": "",
          "type": "address"
        }
      ],
      "stateMutability": "view",
      "type": "function"
    },
    {
      "inputs": [],
      "name": "vBNB",
      "outputs": [
        {
          "internalType": "contract VBNBInterface",
          "name": "",
          "type": "address"
        }
      ],
      "stateMutability": "view",
      "type": "function"
    },
    {
      "inputs": [],
      "name": "versionRecipient",
      "outputs": [
        {
          "internalType": "string",
          "name": "",
          "type": "string"
        }
      ],
      "stateMutability": "pure",
      "type": "function"
    },
    {
      "inputs": [
        {
          "internalType": "address",
          "name": "vToken",
          "type": "address"
        },
        {
          "internalType": "uint256",
          "name": "redeemTokens",
          "type": "uint256"
        }
      ],
      "name": "withdraw",
      "outputs": [],
      "stateMutability": "nonpayable",
      "type": "function"
    },
    {
      "stateMutability": "payable",
      "type": "receive"
    }
  ],
  "transactionHash": "0x15d340a681839817fd6c1966fcc11a9632608484c1ec02a7419e23091e0d793e",
  "args": [
    "0x94d1820b2D1c7c7452A163983Dc888CEC546b77D",
    "0x2E7222e51c0f6e98610A1543Aa3836E092CDe62c"
  ],
  "numDeployments": 1,
  "solcInputHash": "4772c553e0c315465e9a72f7a395c8ac",
  "bytecode": "0x60c06040523480156200001157600080fd5b50604051620034de380380620034de833981016040819052620000349162000135565b6200003e62000056565b6001600160a01b039182166080521660a0526200016d565b600054610100900460ff1615620000c35760405162461bcd60e51b815260206004820152602760248201527f496e697469616c697a61626c653a20636f6e747261637420697320696e697469604482015266616c697a696e6760c81b606482015260840160405180910390fd5b60005460ff908116101562000116576000805460ff191660ff9081179091556040519081527f7f26b83ff96e1f2b6a682f133852f6798a09c465da95921460cefb38474024989060200160405180910390a15b565b80516001600160a01b03811681146200013057600080fd5b919050565b600080604083850312156200014957600080fd5b620001548362000118565b9150620001646020840162000118565b90509250929050565b60805160a0516132e9620001f5600039600081816101960152818161044d015281816104fe015281816105ff0152818161069001528181610a9401528181610b2201528181610e290152818161175c0152611e4f01526000818161027e01528181610b750152818161111d0152818161122201528181611cea0152611d9701526132e96000f3fe6080604052600436106101235760003560e01c80637ad03c8f116100a0578063c4d66de811610064578063c4d66de814610377578063f2b9fdb814610397578063f2fde38b146103b7578063f32f9427146103d7578063f3fef3a3146103ea57600080fd5b80637ad03c8f146102b55780637da0a877146102ca5780638da5cb5b146102ea578063b316ff8914610308578063bf92857c1461032a57600080fd5b8063486ff0cd116100e7578063486ff0cd146101f55780634907b8fc14610225578063572b6c051461022d5780635f82c67e1461026c578063715018a6146102a057600080fd5b80630d8b76a81461012f5780632247463e1461015157806322867d781461016457806333e1567f1461018457806346a629c2146101d557600080fd5b3661012a57005b600080fd5b34801561013b57600080fd5b5061014f61014a366004612c02565b61040a565b005b61014f61015f366004612c1f565b610434565b34801561017057600080fd5b5061014f61017f366004612c38565b6106f6565b34801561019057600080fd5b506101b87f000000000000000000000000000000000000000000000000000000000000000081565b6040516001600160a01b0390911681526020015b60405180910390f35b3480156101e157600080fd5b5061014f6101f0366004612c64565b610a6c565b34801561020157600080fd5b5060408051808201825260018152603160f81b602082015290516101cc9190612d04565b61014f610a86565b34801561023957600080fd5b5061025c610248366004612c02565b6065546001600160a01b0391821691161490565b60405190151581526020016101cc565b34801561027857600080fd5b506101b87f000000000000000000000000000000000000000000000000000000000000000081565b3480156102ac57600080fd5b5061014f610b4b565b3480156102c157600080fd5b5061014f610b5f565b3480156102d657600080fd5b506065546101b8906001600160a01b031681565b3480156102f657600080fd5b506033546001600160a01b03166101b8565b34801561031457600080fd5b5061031d610b6f565b6040516101cc9190612d17565b34801561033657600080fd5b5061034a610345366004612c02565b611214565b604080519687526020870195909552938501929092526060840152608083015260a082015260c0016101cc565b34801561038357600080fd5b5061014f610392366004612c02565b6112b8565b3480156103a357600080fd5b5061014f6103b2366004612c38565b6113ed565b3480156103c357600080fd5b5061014f6103d2366004612c02565b611530565b61014f6103e5366004612e07565b6115a6565b3480156103f657600080fd5b5061014f610405366004612c38565b6115be565b610412611974565b606580546001600160a01b0319166001600160a01b0392909216919091179055565b600061043e6119ed565b90508160001981141561057b577f00000000000000000000000000000000000000000000000000000000000000006001600160a01b031663a6afed956040518163ffffffff1660e01b8152600401602060405180830381600087803b1580156104a657600080fd5b505af11580156104ba573d6000803e3d6000fd5b505050506040513d601f19601f820116820180604052508101906104de9190612e3f565b506040516395dd919360e01b81526001600160a01b0383811660048301527f000000000000000000000000000000000000000000000000000000000000000016906395dd91939060240160206040518083038186803b15801561054057600080fd5b505afa158015610554573d6000803e3d6000fd5b505050506040513d601f19601f820116820180604052508101906105789190612e3f565b90505b803410156105e05760405162461bcd60e51b815260206004820152602760248201527f6d73672e76616c7565206973206c657373207468616e2072657061796d656e7460448201526608185b5bdd5b9d60ca1b60648201526084015b60405180910390fd5b60405163e597461960e01b81526001600160a01b0383811660048301527f0000000000000000000000000000000000000000000000000000000000000000169063e59746199083906024016000604051808303818588803b15801561064457600080fd5b505af1158015610658573d6000803e3d6000fd5b50479350508215915061067190505761067183826119fc565b73eeeeeeeeeeeeeeeeeeeeeeeeeeeeeeeeeeeeeeee6001600160a01b037f000000000000000000000000000000000000000000000000000000000000000081169085167f4cdde6e09bb755c9a5589ebaec640bbfedff1362d4b255ebf8339782b9942faa6106df8534612e6e565b60405190815260200160405180910390a450505050565b60006107006119ed565b9050816000198114156107fd57836001600160a01b031663a6afed956040518163ffffffff1660e01b8152600401602060405180830381600087803b15801561074857600080fd5b505af115801561075c573d6000803e3d6000fd5b505050506040513d601f19601f820116820180604052508101906107809190612e3f565b506040516395dd919360e01b81526001600160a01b0383811660048301528516906395dd91939060240160206040518083038186803b1580156107c257600080fd5b505afa1580156107d6573d6000803e3d6000fd5b505050506040513d601f19601f820116820180604052508101906107fa9190612e3f565b90505b6000846001600160a01b0316636f307dc36040518163ffffffff1660e01b815260040160206040518083038186803b15801561083857600080fd5b505afa15801561084c573d6000803e3d6000fd5b505050506040513d601f19601f820116820180604052508101906108709190612e85565b90506108876001600160a01b038216843085611aaf565b6040516304c11f0360e31b81526001600160a01b0384811660048301526024820184905260009190871690632608f81890604401602060405180830381600087803b1580156108d557600080fd5b505af11580156108e9573d6000803e3d6000fd5b505050506040513d601f19601f8201168201806040525081019061090d9190612e3f565b6040516370a0823160e01b81523060048201529091506000906001600160a01b038416906370a082319060240160206040518083038186803b15801561095257600080fd5b505afa158015610966573d6000803e3d6000fd5b505050506040513d601f19601f8201168201806040525081019061098a9190612e3f565b905080156109a6576109a66001600160a01b0384168683611b1a565b81610a0c57826001600160a01b0316876001600160a01b0316866001600160a01b03167f4cdde6e09bb755c9a5589ebaec640bbfedff1362d4b255ebf8339782b9942faa84886109f69190612e6e565b60405190815260200160405180910390a4610a63565b866001600160a01b0316856001600160a01b03167f06c3b5b720e855f38a08383f0f0eef3cef3e153383ba6e3eff3814a4ddf1af178685604051610a5a929190918252602082015260400190565b60405180910390a35b50505050505050565b610a7684846106f6565b610a8082826115be565b50505050565b6000610a906119ed565b90507f00000000000000000000000000000000000000000000000000000000000000006001600160a01b0316631249c58b346040518263ffffffff1660e01b81526004016000604051808303818588803b158015610aed57600080fd5b505af1158015610b01573d6000803e3d6000fd5b5050505050610b488173eeeeeeeeeeeeeeeeeeeeeeeeeeeeeeeeeeeeeeee347f00000000000000000000000000000000000000000000000000000000000000006000611b4a565b50565b610b53611974565b610b5d6000611c94565b565b610b67611974565b610b5d611ce6565b606060007f00000000000000000000000000000000000000000000000000000000000000006001600160a01b031663b0772d0b6040518163ffffffff1660e01b815260040160006040518083038186803b158015610bcc57600080fd5b505afa158015610be0573d6000803e3d6000fd5b505050506040513d6000823e601f3d908101601f19168201604052610c089190810190612f0d565b9050805167ffffffffffffffff811115610c2457610c24612ea2565b604051908082528060200260200182016040528015610c9257816020015b6040805161010081018252600080825260606020808401829052938301829052808301829052608083015260a0820181905260c0820181905260e08201528252600019909201910181610c425790505b50915060005b815181101561120f576000828281518110610cb557610cb5612fa1565b6020026020010151905080848381518110610cd257610cd2612fa1565b6020026020010151606001906001600160a01b031690816001600160a01b031681525050806001600160a01b03166395d89b416040518163ffffffff1660e01b815260040160006040518083038186803b158015610d2f57600080fd5b505afa158015610d43573d6000803e3d6000fd5b505050506040513d6000823e601f3d908101601f19168201604052610d6b9190810190612fb7565b848381518110610d7d57610d7d612fa1565b602002602001015160800181905250806001600160a01b031663313ce5676040518163ffffffff1660e01b815260040160206040518083038186803b158015610dc557600080fd5b505afa158015610dd9573d6000803e3d6000fd5b505050506040513d601f19601f82011682018060405250810190610dfd9190613042565b848381518110610e0f57610e0f612fa1565b602002602001015160a0019060ff16908160ff16815250507f00000000000000000000000000000000000000000000000000000000000000006001600160a01b0316816001600160a01b03161415610f1a5773eeeeeeeeeeeeeeeeeeeeeeeeeeeeeeeeeeeeeeee848381518110610e8857610e88612fa1565b6020026020010151600001906001600160a01b031690816001600160a01b0316815250506040518060400160405280600381526020016221272160e91b815250848381518110610eda57610eda612fa1565b6020026020010151602001819052506012848381518110610efd57610efd612fa1565b60200260200101516040019060ff16908160ff16815250506110f9565b6000816001600160a01b0316636f307dc36040518163ffffffff1660e01b815260040160206040518083038186803b158015610f5557600080fd5b505afa158015610f69573d6000803e3d6000fd5b505050506040513d601f19601f82011682018060405250810190610f8d9190612e85565b905080858481518110610fa257610fa2612fa1565b6020026020010151600001906001600160a01b031690816001600160a01b031681525050806001600160a01b03166395d89b416040518163ffffffff1660e01b815260040160006040518083038186803b158015610fff57600080fd5b505afa158015611013573d6000803e3d6000fd5b505050506040513d6000823e601f3d908101601f1916820160405261103b9190810190612fb7565b85848151811061104d5761104d612fa1565b602002602001015160200181905250806001600160a01b031663313ce5676040518163ffffffff1660e01b815260040160206040518083038186803b15801561109557600080fd5b505afa1580156110a9573d6000803e3d6000fd5b505050506040513d601f19601f820116820180604052508101906110cd9190613042565b8584815181106110df576110df612fa1565b60200260200101516040019060ff16908160ff1681525050505b604051638e8f294b60e01b81526001600160a01b03828116600483015260009182917f00000000000000000000000000000000000000000000000000000000000000001690638e8f294b9060240160606040518083038186803b15801561115f57600080fd5b505afa158015611173573d6000803e3d6000fd5b505050506040513d601f19601f82011682018060405250810190611197919061307a565b9250925050655af3107a4000826111ae91906130cc565b8685815181106111c0576111c0612fa1565b602002602001015160c0018181525050808685815181106111e3576111e3612fa1565b602002602001015160e00190151590811515815250505050508080611207906130ee565b915050610c98565b505090565b6000806000806000806112477f000000000000000000000000000000000000000000000000000000000000000088611fb2565b929850909650945091506112606402540be400876130cc565b95506112716402540be400866130cc565b94506112826402540be400856130cc565b9350819250846000146112a9578461129a8388613109565b6112a491906130cc565b6112ad565b6000195b905091939550919395565b600054610100900460ff16158080156112d85750600054600160ff909116105b806112f25750303b1580156112f2575060005460ff166001145b6113555760405162461bcd60e51b815260206004820152602e60248201527f496e697469616c697a61626c653a20636f6e747261637420697320616c72656160448201526d191e481a5b9a5d1a585b1a5e995960921b60648201526084016105d7565b6000805460ff191660011790558015611378576000805461ff0019166101001790555b6113806124fe565b606580546001600160a01b0319166001600160a01b0384161790556113a3611ce6565b80156113e9576000805461ff0019169055604051600181527f7f26b83ff96e1f2b6a682f133852f6798a09c465da95921460cefb38474024989060200160405180910390a15b5050565b60006113f76119ed565b90506000836001600160a01b0316636f307dc36040518163ffffffff1660e01b815260040160206040518083038186803b15801561143457600080fd5b505afa158015611448573d6000803e3d6000fd5b505050506040513d601f19601f8201168201806040525081019061146c9190612e85565b90506114836001600160a01b038216833086611aaf565b60405163140e25ad60e31b8152600481018490526000906001600160a01b0386169063a0712d6890602401602060405180830381600087803b1580156114c857600080fd5b505af11580156114dc573d6000803e3d6000fd5b505050506040513d601f19601f820116820180604052508101906115009190612e3f565b9050801561151c5761151c6001600160a01b0383168486611b1a565b6115298383868885611b4a565b5050505050565b611538611974565b6001600160a01b03811661159d5760405162461bcd60e51b815260206004820152602660248201527f4f776e61626c653a206e6577206f776e657220697320746865207a65726f206160448201526564647265737360d01b60648201526084016105d7565b610b4881611c94565b6115af83610434565b6115b982826115be565b505050565b60006115c86119ed565b905081600019811415611651576040516370a0823160e01b81526001600160a01b0383811660048301528516906370a082319060240160206040518083038186803b15801561161657600080fd5b505afa15801561162a573d6000803e3d6000fd5b505050506040513d601f19601f8201168201806040525081019061164e9190612e3f565b90505b6116666001600160a01b038516833084611aaf565b60405163db006a7560e01b8152600481018290526000906001600160a01b0386169063db006a7590602401602060405180830381600087803b1580156116ab57600080fd5b505af11580156116bf573d6000803e3d6000fd5b505050506040513d601f19601f820116820180604052508101906116e39190612e3f565b9050801561175a576116ff6001600160a01b0386168484611b1a565b846001600160a01b0316836001600160a01b03167f630fe739932d7769f42fb1857e24a7f480aa55d4322e54bc0b13aed4be4b3310848460405161174d929190918252602082015260400190565b60405180910390a3611529565b7f00000000000000000000000000000000000000000000000000000000000000006001600160a01b0316856001600160a01b03161415611805574761179f84826119fc565b604080518481526020810183905273eeeeeeeeeeeeeeeeeeeeeeeeeeeeeeeeeeeeeeee916001600160a01b0389811692908816917f919fc3589577d8ba8023ca13d0b64eaeb6af31c331b4b81c0d42d6642360307791015b60405180910390a450611529565b6000856001600160a01b0316636f307dc36040518163ffffffff1660e01b815260040160206040518083038186803b15801561184057600080fd5b505afa158015611854573d6000803e3d6000fd5b505050506040513d601f19601f820116820180604052508101906118789190612e85565b6040516370a0823160e01b81523060048201529091506000906001600160a01b038316906370a082319060240160206040518083038186803b1580156118bd57600080fd5b505afa1580156118d1573d6000803e3d6000fd5b505050506040513d601f19601f820116820180604052508101906118f59190612e3f565b905061190b6001600160a01b0383168683611b1a565b816001600160a01b0316876001600160a01b0316866001600160a01b03167f919fc3589577d8ba8023ca13d0b64eaeb6af31c331b4b81c0d42d664236030778785604051611963929190918252602082015260400190565b60405180910390a450505050505050565b61197c6119ed565b6001600160a01b03166119976033546001600160a01b031690565b6001600160a01b031614610b5d5760405162461bcd60e51b815260206004820181905260248201527f4f776e61626c653a2063616c6c6572206973206e6f7420746865206f776e657260448201526064016105d7565b60006119f761252d565b905090565b604080516000808252602082019092526001600160a01b038416908390604051611a269190613128565b60006040518083038185875af1925050503d8060008114611a63576040519150601f19603f3d011682016040523d82523d6000602084013e611a68565b606091505b50509050806115b95760405162461bcd60e51b815260206004820152601360248201527211551217d514905394d1915497d19052531151606a1b60448201526064016105d7565b6040516001600160a01b0380851660248301528316604482015260648101829052610a809085906323b872dd60e01b906084015b60408051601f198184030181529190526020810180516001600160e01b03166001600160e01b031990931692909217909152612561565b6040516001600160a01b0383166024820152604481018290526115b990849063a9059cbb60e01b90606401611ae3565b80611c37576040516370a0823160e01b81523060048201526000906001600160a01b038416906370a082319060240160206040518083038186803b158015611b9157600080fd5b505afa158015611ba5573d6000803e3d6000fd5b505050506040513d601f19601f82011682018060405250810190611bc99190612e3f565b9050611bdf6001600160a01b0384168783611b1a565b846001600160a01b0316836001600160a01b0316876001600160a01b03167fe751baae971614714a5055ecbc0892f68c0e2d70c56550cb65a76bc840fa5f6e87856040516117f7929190918252602082015260400190565b816001600160a01b0316856001600160a01b03167f05200240135f0c4e55796709a047759f3ff2019b3c924f8a211039236e9e24ae8584604051611c85929190918252602082015260400190565b60405180910390a35050505050565b603380546001600160a01b038381166001600160a01b0319831681179093556040519116919082907f8be0079c531659141344cd1fd0a4f28419497f9722a3daafe3b4186f6b6457e090600090a35050565b60007f00000000000000000000000000000000000000000000000000000000000000006001600160a01b031663b0772d0b6040518163ffffffff1660e01b815260040160006040518083038186803b158015611d4157600080fd5b505afa158015611d55573d6000803e3d6000fd5b505050506040513d6000823e601f3d908101601f19168201604052611d7d9190810190612f0d565b604051631853304760e31b81529091506001600160a01b037f0000000000000000000000000000000000000000000000000000000000000000169063c299823890611dcc908490600401613144565b600060405180830381600087803b158015611de657600080fd5b505af1158015611dfa573d6000803e3d6000fd5b505050506040513d6000823e601f3d908101601f19168201604052611e229190810190613191565b5060005b81518110156113e9576000828281518110611e4357611e43612fa1565b602002602001015190507f00000000000000000000000000000000000000000000000000000000000000006001600160a01b0316816001600160a01b03161415611e8d5750611fa0565b6000816001600160a01b0316636f307dc36040518163ffffffff1660e01b815260040160206040518083038186803b158015611ec857600080fd5b505afa158015611edc573d6000803e3d6000fd5b505050506040513d601f19601f82011682018060405250810190611f009190612e85565b604051636eb1769f60e11b81523060048201526001600160a01b0384811660248301529192509082169063dd62ed3e9060440160206040518083038186803b158015611f4b57600080fd5b505afa158015611f5f573d6000803e3d6000fd5b505050506040513d601f19601f82011682018060405250810190611f839190612e3f565b611f9d57611f9d6001600160a01b03821683600019612633565b50505b80611faa816130ee565b915050611e26565b600080600080611fc0612b29565b604051632aff3bff60e21b81526001600160a01b03878116600483015260009182918a169063abfceffc9060240160006040518083038186803b15801561200657600080fd5b505afa15801561201a573d6000803e3d6000fd5b505050506040513d6000823e601f3d908101601f191682016040526120429190810190612f0d565b805190915060005b8181101561237f57600083828151811061206657612066612fa1565b60209081029190910101516040516361bfb47160e11b81526001600160a01b038d811660048301529192509082169063c37f68e29060240160806040518083038186803b1580156120b657600080fd5b505afa1580156120ca573d6000803e3d6000fd5b505050506040513d601f19601f820116820180604052508101906120ee9190613217565b60a08a0152608089015260608801529450841561210b575061236f565b604051638e8f294b60e01b81526001600160a01b038281166004830152600091908e1690638e8f294b9060240160606040518083038186803b15801561215057600080fd5b505afa158015612164573d6000803e3d6000fd5b505050506040513d601f19601f82011682018060405250810190612188919061307a565b509150506040518060200160405280828152508760e0018190525060405180602001604052808860a001518152508761010001819052508c6001600160a01b0316637dc0d1d06040518163ffffffff1660e01b815260040160206040518083038186803b1580156121f857600080fd5b505afa15801561220c573d6000803e3d6000fd5b505050506040513d601f19601f820116820180604052508101906122309190612e85565b60405163fc57d4df60e01b81526001600160a01b038481166004830152919091169063fc57d4df9060240160206040518083038186803b15801561227357600080fd5b505afa158015612287573d6000803e3d6000fd5b505050506040513d601f19601f820116820180604052508101906122ab9190612e3f565b60c088018190526122bd57505061236f565b604080516020810190915260c0880151815261012088015260e08701516101008801516122f8916122ed91612757565b886101200151612757565b61014088018190526060880151602089015161231592919061279f565b60208801526101008701516101208801516123309190612757565b61016088018190526060880151885161234a92919061279f565b87526101208701516080880151604089015161236792919061279f565b604088015250505b612378816130ee565b905061204a565b5060008a6001600160a01b0316639254f5e56040518163ffffffff1660e01b815260040160206040518083038186803b1580156123bb57600080fd5b505afa1580156123cf573d6000803e3d6000fd5b505050506040513d601f19601f820116820180604052508101906123f39190612e85565b90506001600160a01b03811615612493576040808601519051633c617c9160e11b81526001600160a01b038c8116600483015261248d9291908416906378c2f9229060240160206040518083038186803b15801561245057600080fd5b505afa158015612464573d6000803e3d6000fd5b505050506040513d601f19601f820116820180604052508101906124889190612e3f565b6127cb565b60408601525b84516040860151602087015181106124ac5760006124c0565b866040015187602001516124c09190612e6e565b87516124cd5760006124e9565b6124e988602001516127106124e29190613109565b8951612801565b929e919d509b50909950975050505050505050565b600054610100900460ff166125255760405162461bcd60e51b81526004016105d79061324d565b610b5d61285f565b60006018361080159061254a57506065546001600160a01b031633145b1561255c575060131936013560601c90565b503390565b60006125b6826040518060400160405280602081526020017f5361666545524332303a206c6f772d6c6576656c2063616c6c206661696c6564815250856001600160a01b03166128969092919063ffffffff16565b8051909150156115b957808060200190518101906125d49190613298565b6115b95760405162461bcd60e51b815260206004820152602a60248201527f5361666545524332303a204552433230206f7065726174696f6e20646964206e6044820152691bdd081cdd58d8d9595960b21b60648201526084016105d7565b8015806126bc5750604051636eb1769f60e11b81523060048201526001600160a01b03838116602483015284169063dd62ed3e9060440160206040518083038186803b15801561268257600080fd5b505afa158015612696573d6000803e3d6000fd5b505050506040513d601f19601f820116820180604052508101906126ba9190612e3f565b155b6127275760405162461bcd60e51b815260206004820152603660248201527f5361666545524332303a20617070726f76652066726f6d206e6f6e2d7a65726f60448201527520746f206e6f6e2d7a65726f20616c6c6f77616e636560501b60648201526084016105d7565b6040516001600160a01b0383166024820152604481018290526115b990849063095ea7b360e01b90606401611ae3565b6040805160208101909152600081526040518060200160405280670de0b6b3a764000061278c866000015186600001516128ad565b61279691906130cc565b90529392505050565b6000806127ac85856128ef565b90506127c06127ba82612917565b846127cb565b9150505b9392505050565b60006127c48383604051806040016040528060118152602001706164646974696f6e206f766572666c6f7760781b815250612935565b60008082116128435760405162461bcd60e51b815260206004820152600e60248201526d646976696465206279207a65726f60901b60448201526064016105d7565b8160028104840181612857576128576130b6565b049392505050565b600054610100900460ff166128865760405162461bcd60e51b81526004016105d79061324d565b610b5d6128916119ed565b611c94565b60606128a58484600085612965565b949350505050565b60006127c483836040518060400160405280601781526020017f6d756c7469706c69636174696f6e206f766572666c6f77000000000000000000815250612a40565b60408051602081019091526000815260405180602001604052806127968560000151856128ad565b805160009061292f90670de0b6b3a7640000906130cc565b92915050565b6000838301828582101561295c5760405162461bcd60e51b81526004016105d79190612d04565b50949350505050565b6060824710156129c65760405162461bcd60e51b815260206004820152602660248201527f416464726573733a20696e73756666696369656e742062616c616e636520666f6044820152651c8818d85b1b60d21b60648201526084016105d7565b600080866001600160a01b031685876040516129e29190613128565b60006040518083038185875af1925050503d8060008114612a1f576040519150601f19603f3d011682016040523d82523d6000602084013e612a24565b606091505b5091509150612a3587838387612a8e565b979650505050505050565b6000831580612a4d575082155b15612a5a575060006127c4565b83830283858281612a6d57612a6d6130b6565b0414839061295c5760405162461bcd60e51b81526004016105d79190612d04565b60608315612afa578251612af3576001600160a01b0385163b612af35760405162461bcd60e51b815260206004820152601d60248201527f416464726573733a2063616c6c20746f206e6f6e2d636f6e747261637400000060448201526064016105d7565b50816128a5565b6128a58383815115612b0f5781518083602001fd5b8060405162461bcd60e51b81526004016105d79190612d04565b60405180610180016040528060008152602001600081526020016000815260200160008152602001600081526020016000815260200160008152602001612b7c6040518060200160405280600081525090565b8152602001612b976040518060200160405280600081525090565b8152602001612bb26040518060200160405280600081525090565b8152602001612bcd6040518060200160405280600081525090565b8152602001612be86040518060200160405280600081525090565b905290565b6001600160a01b0381168114610b4857600080fd5b600060208284031215612c1457600080fd5b81356127c481612bed565b600060208284031215612c3157600080fd5b5035919050565b60008060408385031215612c4b57600080fd5b8235612c5681612bed565b946020939093013593505050565b60008060008060808587031215612c7a57600080fd5b8435612c8581612bed565b9350602085013592506040850135612c9c81612bed565b9396929550929360600135925050565b60005b83811015612cc7578181015183820152602001612caf565b83811115610a805750506000910152565b60008151808452612cf0816020860160208601612cac565b601f01601f19169290920160200192915050565b6020815260006127c46020830184612cd8565b60006020808301818452808551808352604092508286019150828160051b87010184880160005b83811015612df957888303603f19018552815180516001600160a01b031684528781015161010089860181905290612d7882870182612cd8565b91505087820151612d8d8987018260ff169052565b506060828101516001600160a01b03169086015260808083015186830382880152612db88382612cd8565b9250505060a080830151612dd08288018260ff169052565b505060c0828101519086015260e091820151151591909401529386019390860190600101612d3e565b509098975050505050505050565b600080600060608486031215612e1c57600080fd5b833592506020840135612e2e81612bed565b929592945050506040919091013590565b600060208284031215612e5157600080fd5b5051919050565b634e487b7160e01b600052601160045260246000fd5b600082821015612e8057612e80612e58565b500390565b600060208284031215612e9757600080fd5b81516127c481612bed565b634e487b7160e01b600052604160045260246000fd5b604051601f8201601f1916810167ffffffffffffffff81118282101715612ee157612ee1612ea2565b604052919050565b600067ffffffffffffffff821115612f0357612f03612ea2565b5060051b60200190565b60006020808385031215612f2057600080fd5b825167ffffffffffffffff811115612f3757600080fd5b8301601f81018513612f4857600080fd5b8051612f5b612f5682612ee9565b612eb8565b81815260059190911b82018301908381019087831115612f7a57600080fd5b928401925b82841015612a35578351612f9281612bed565b82529284019290840190612f7f565b634e487b7160e01b600052603260045260246000fd5b600060208284031215612fc957600080fd5b815167ffffffffffffffff80821115612fe157600080fd5b818401915084601f830112612ff557600080fd5b81518181111561300757613007612ea2565b61301a601f8201601f1916602001612eb8565b915080825285602082850101111561303157600080fd5b61295c816020840160208601612cac565b60006020828403121561305457600080fd5b815160ff811681146127c457600080fd5b8051801515811461307557600080fd5b919050565b60008060006060848603121561308f57600080fd5b61309884613065565b9250602084015191506130ad60408501613065565b90509250925092565b634e487b7160e01b600052601260045260246000fd5b6000826130e957634e487b7160e01b600052601260045260246000fd5b500490565b600060001982141561310257613102612e58565b5060010190565b600081600019048311821515161561312357613123612e58565b500290565b6000825161313a818460208701612cac565b9190910192915050565b6020808252825182820181905260009190848201906040850190845b818110156131855783516001600160a01b031683529284019291840191600101613160565b50909695505050505050565b600060208083850312156131a457600080fd5b825167ffffffffffffffff8111156131bb57600080fd5b8301601f810185136131cc57600080fd5b80516131da612f5682612ee9565b81815260059190911b820183019083810190878311156131f957600080fd5b928401925b82841015612a35578351825292840192908401906131fe565b6000806000806080858703121561322d57600080fd5b505082516020840151604085015160609095015191969095509092509050565b6020808252602b908201527f496e697469616c697a61626c653a20636f6e7472616374206973206e6f74206960408201526a6e697469616c697a696e6760a81b606082015260800190565b6000602082840312156132aa57600080fd5b6127c48261306556fea264697066735822122034dccf78ef88f02163194b0b7d51f1008189ec7bcda20a82515bff22a8509a8364736f6c63430008090033",
  "devdoc": {
    "kind": "dev",
    "methods": {
      "constructor": {
        "custom:oz-upgrades-unsafe-allow": "constructor"
      },
      "getUserAccountData(address)": {
        "params": {
          "user": "The address of the user"
        },
        "returns": {
          "availableBorrows": "The borrowing power left of the user in USD",
          "currentLiquidationThreshold": "The liquidation threshold of the user",
          "healthFactor": "The current health factor of the user",
          "ltv": "The loan to value of The user",
          "totalCollateral": "The total collateral of the user in USD. The unit is 100000000",
          "totalDebt": "The total debt of the user in USD"
        }
      },
      "owner()": {
        "details": "Returns the address of the current owner."
      },
      "renounceOwnership()": {
        "details": "Leaves the contract without owner. It will not be possible to call `onlyOwner` functions anymore. Can only be called by the current owner. NOTE: Renouncing ownership will leave the contract without an owner, thereby removing any functionality that is only available to the owner."
      },
      "transferOwnership(address)": {
        "details": "Transfers ownership of the contract to a new account (`newOwner`). Can only be called by the current owner."
      }
    },
    "version": 1
  },
  "userdoc": {
    "kind": "user",
    "methods": {
      "approvePool()": {
        "notice": "If new assets are added into the pool, it needs to be called."
      },
      "getUserAccountData(address)": {
        "notice": "Returns the user account data across all the reserves"
      },
      "isTrustedForwarder(address)": {
        "notice": "return if the forwarder is trusted to forward relayed transactions to us. the forwarder is required to verify the sender's signature, and verify the call is not a replay."
      },
      "repay(address,uint256)": {
        "notice": "The user must approve this SC for the underlying asset."
      },
      "supply(address,uint256)": {
        "notice": "The user must approve this SC for the underlying asset."
      }
    },
    "version": 1
  },
  "storageLayout": {
    "storage": [
      {
        "astId": 138,
        "contract": "contracts/VenusAdapter.sol:VenusAdapter",
        "label": "_initialized",
        "offset": 0,
        "slot": "0",
        "type": "t_uint8"
      },
      {
        "astId": 141,
        "contract": "contracts/VenusAdapter.sol:VenusAdapter",
        "label": "_initializing",
        "offset": 1,
        "slot": "0",
        "type": "t_bool"
      },
      {
        "astId": 1020,
        "contract": "contracts/VenusAdapter.sol:VenusAdapter",
        "label": "__gap",
        "offset": 0,
        "slot": "1",
        "type": "t_array(t_uint256)50_storage"
      },
      {
        "astId": 10,
        "contract": "contracts/VenusAdapter.sol:VenusAdapter",
        "label": "_owner",
        "offset": 0,
        "slot": "51",
        "type": "t_address"
      },
      {
        "astId": 130,
        "contract": "contracts/VenusAdapter.sol:VenusAdapter",
        "label": "__gap",
        "offset": 0,
        "slot": "52",
        "type": "t_array(t_uint256)49_storage"
      },
      {
        "astId": 3894,
        "contract": "contracts/VenusAdapter.sol:VenusAdapter",
        "label": "trustedForwarder",
        "offset": 0,
        "slot": "101",
        "type": "t_address"
      }
    ],
    "types": {
      "t_address": {
        "encoding": "inplace",
        "label": "address",
        "numberOfBytes": "20"
      },
      "t_array(t_uint256)49_storage": {
        "base": "t_uint256",
        "encoding": "inplace",
        "label": "uint256[49]",
        "numberOfBytes": "1568"
      },
      "t_array(t_uint256)50_storage": {
        "base": "t_uint256",
        "encoding": "inplace",
        "label": "uint256[50]",
        "numberOfBytes": "1600"
      },
      "t_bool": {
        "encoding": "inplace",
        "label": "bool",
        "numberOfBytes": "1"
      },
      "t_uint256": {
        "encoding": "inplace",
        "label": "uint256",
        "numberOfBytes": "32"
      },
      "t_uint8": {
        "encoding": "inplace",
        "label": "uint8",
        "numberOfBytes": "1"
      }
    }
  }
}